{
  "_format": "hh-sol-artifact-1",
  "contractName": "Debook",
  "sourceName": "contracts/Debook.sol",
  "abi": [
    {
      "inputs": [],
      "stateMutability": "nonpayable",
      "type": "constructor"
    },
    {
      "anonymous": false,
      "inputs": [
        {
          "indexed": true,
          "internalType": "address",
          "name": "owner",
          "type": "address"
        },
        {
          "indexed": true,
          "internalType": "address",
          "name": "approved",
          "type": "address"
        },
        {
          "indexed": true,
          "internalType": "uint256",
          "name": "tokenId",
          "type": "uint256"
        }
      ],
      "name": "Approval",
      "type": "event"
    },
    {
      "anonymous": false,
      "inputs": [
        {
          "indexed": true,
          "internalType": "address",
          "name": "owner",
          "type": "address"
        },
        {
          "indexed": true,
          "internalType": "address",
          "name": "operator",
          "type": "address"
        },
        {
          "indexed": false,
          "internalType": "bool",
          "name": "approved",
          "type": "bool"
        }
      ],
      "name": "ApprovalForAll",
      "type": "event"
    },
    {
      "anonymous": false,
      "inputs": [
        {
          "indexed": false,
          "internalType": "uint256",
          "name": "id",
          "type": "uint256"
        },
        {
          "indexed": false,
          "internalType": "string",
          "name": "hash",
          "type": "string"
        },
        {
          "indexed": false,
          "internalType": "uint256",
          "name": "tipAmount",
          "type": "uint256"
        },
        {
          "indexed": false,
          "internalType": "address payable",
          "name": "author",
          "type": "address"
        }
      ],
      "name": "PostCreated",
      "type": "event"
    },
    {
      "anonymous": false,
      "inputs": [
        {
          "indexed": false,
          "internalType": "uint256",
          "name": "id",
          "type": "uint256"
        },
        {
          "indexed": false,
          "internalType": "string",
          "name": "hash",
          "type": "string"
        },
        {
          "indexed": false,
          "internalType": "uint256",
          "name": "tipAmount",
          "type": "uint256"
        },
        {
          "indexed": false,
          "internalType": "address payable",
          "name": "author",
          "type": "address"
        }
      ],
      "name": "PostTipped",
      "type": "event"
    },
    {
      "anonymous": false,
      "inputs": [
        {
          "indexed": true,
          "internalType": "address",
          "name": "from",
          "type": "address"
        },
        {
          "indexed": true,
          "internalType": "address",
          "name": "to",
          "type": "address"
        },
        {
          "indexed": true,
          "internalType": "uint256",
          "name": "tokenId",
          "type": "uint256"
        }
      ],
      "name": "Transfer",
      "type": "event"
    },
    {
      "inputs": [
        {
          "internalType": "address",
          "name": "to",
          "type": "address"
        },
        {
          "internalType": "uint256",
          "name": "tokenId",
          "type": "uint256"
        }
      ],
      "name": "approve",
      "outputs": [],
      "stateMutability": "nonpayable",
      "type": "function"
    },
    {
      "inputs": [
        {
          "internalType": "address",
          "name": "owner",
          "type": "address"
        }
      ],
      "name": "balanceOf",
      "outputs": [
        {
          "internalType": "uint256",
          "name": "",
          "type": "uint256"
        }
      ],
      "stateMutability": "view",
      "type": "function"
    },
    {
      "inputs": [],
      "name": "getAllPosts",
      "outputs": [
        {
          "components": [
            {
              "internalType": "uint256",
              "name": "id",
              "type": "uint256"
            },
            {
              "internalType": "string",
              "name": "hash",
              "type": "string"
            },
            {
              "internalType": "uint256",
              "name": "tipAmount",
              "type": "uint256"
            },
            {
              "internalType": "address payable",
              "name": "author",
              "type": "address"
            }
          ],
          "internalType": "struct Debook.Post[]",
          "name": "_posts",
          "type": "tuple[]"
        }
      ],
      "stateMutability": "view",
      "type": "function"
    },
    {
      "inputs": [
        {
          "internalType": "uint256",
          "name": "tokenId",
          "type": "uint256"
        }
      ],
      "name": "getApproved",
      "outputs": [
        {
          "internalType": "address",
          "name": "",
          "type": "address"
        }
      ],
      "stateMutability": "view",
      "type": "function"
    },
    {
      "inputs": [],
      "name": "getMyNfts",
      "outputs": [
        {
          "internalType": "uint256[]",
          "name": "_ids",
          "type": "uint256[]"
        }
      ],
      "stateMutability": "view",
      "type": "function"
    },
    {
      "inputs": [
        {
          "internalType": "address",
          "name": "owner",
          "type": "address"
        },
        {
          "internalType": "address",
          "name": "operator",
          "type": "address"
        }
      ],
      "name": "isApprovedForAll",
      "outputs": [
        {
          "internalType": "bool",
          "name": "",
          "type": "bool"
        }
      ],
      "stateMutability": "view",
      "type": "function"
    },
    {
      "inputs": [
        {
          "internalType": "string",
          "name": "_tokenURI",
          "type": "string"
        }
      ],
      "name": "mint",
      "outputs": [
        {
          "internalType": "uint256",
          "name": "",
          "type": "uint256"
        }
      ],
      "stateMutability": "nonpayable",
      "type": "function"
    },
    {
      "inputs": [],
      "name": "name",
      "outputs": [
        {
          "internalType": "string",
          "name": "",
          "type": "string"
        }
      ],
      "stateMutability": "view",
      "type": "function"
    },
    {
      "inputs": [
        {
          "internalType": "uint256",
          "name": "tokenId",
          "type": "uint256"
        }
      ],
      "name": "ownerOf",
      "outputs": [
        {
          "internalType": "address",
          "name": "",
          "type": "address"
        }
      ],
      "stateMutability": "view",
      "type": "function"
    },
    {
      "inputs": [],
      "name": "postCount",
      "outputs": [
        {
          "internalType": "uint256",
          "name": "",
          "type": "uint256"
        }
      ],
      "stateMutability": "view",
      "type": "function"
    },
    {
      "inputs": [
        {
          "internalType": "uint256",
          "name": "",
          "type": "uint256"
        }
      ],
      "name": "posts",
      "outputs": [
        {
          "internalType": "uint256",
          "name": "id",
          "type": "uint256"
        },
        {
          "internalType": "string",
          "name": "hash",
          "type": "string"
        },
        {
          "internalType": "uint256",
          "name": "tipAmount",
          "type": "uint256"
        },
        {
          "internalType": "address payable",
          "name": "author",
          "type": "address"
        }
      ],
      "stateMutability": "view",
      "type": "function"
    },
    {
      "inputs": [
        {
          "internalType": "address",
          "name": "",
          "type": "address"
        }
      ],
      "name": "profiles",
      "outputs": [
        {
          "internalType": "uint256",
          "name": "",
          "type": "uint256"
        }
      ],
      "stateMutability": "view",
      "type": "function"
    },
    {
      "inputs": [
        {
          "internalType": "address",
          "name": "from",
          "type": "address"
        },
        {
          "internalType": "address",
          "name": "to",
          "type": "address"
        },
        {
          "internalType": "uint256",
          "name": "tokenId",
          "type": "uint256"
        }
      ],
      "name": "safeTransferFrom",
      "outputs": [],
      "stateMutability": "nonpayable",
      "type": "function"
    },
    {
      "inputs": [
        {
          "internalType": "address",
          "name": "from",
          "type": "address"
        },
        {
          "internalType": "address",
          "name": "to",
          "type": "address"
        },
        {
          "internalType": "uint256",
          "name": "tokenId",
          "type": "uint256"
        },
        {
          "internalType": "bytes",
          "name": "_data",
          "type": "bytes"
        }
      ],
      "name": "safeTransferFrom",
      "outputs": [],
      "stateMutability": "nonpayable",
      "type": "function"
    },
    {
      "inputs": [
        {
          "internalType": "address",
          "name": "operator",
          "type": "address"
        },
        {
          "internalType": "bool",
          "name": "approved",
          "type": "bool"
        }
      ],
      "name": "setApprovalForAll",
      "outputs": [],
      "stateMutability": "nonpayable",
      "type": "function"
    },
    {
      "inputs": [
        {
          "internalType": "uint256",
          "name": "_id",
          "type": "uint256"
        }
      ],
      "name": "setProfile",
      "outputs": [],
      "stateMutability": "nonpayable",
      "type": "function"
    },
    {
      "inputs": [
        {
          "internalType": "bytes4",
          "name": "interfaceId",
          "type": "bytes4"
        }
      ],
      "name": "supportsInterface",
      "outputs": [
        {
          "internalType": "bool",
          "name": "",
          "type": "bool"
        }
      ],
      "stateMutability": "view",
      "type": "function"
    },
    {
      "inputs": [],
      "name": "symbol",
      "outputs": [
        {
          "internalType": "string",
          "name": "",
          "type": "string"
        }
      ],
      "stateMutability": "view",
      "type": "function"
    },
    {
      "inputs": [
        {
          "internalType": "uint256",
          "name": "_id",
          "type": "uint256"
        }
      ],
      "name": "tipPostOwner",
      "outputs": [],
      "stateMutability": "payable",
      "type": "function"
    },
    {
      "inputs": [],
      "name": "tokenCount",
      "outputs": [
        {
          "internalType": "uint256",
          "name": "",
          "type": "uint256"
        }
      ],
      "stateMutability": "view",
      "type": "function"
    },
    {
      "inputs": [
        {
          "internalType": "uint256",
          "name": "tokenId",
          "type": "uint256"
        }
      ],
      "name": "tokenURI",
      "outputs": [
        {
          "internalType": "string",
          "name": "",
          "type": "string"
        }
      ],
      "stateMutability": "view",
      "type": "function"
    },
    {
      "inputs": [
        {
          "internalType": "address",
          "name": "from",
          "type": "address"
        },
        {
          "internalType": "address",
          "name": "to",
          "type": "address"
        },
        {
          "internalType": "uint256",
          "name": "tokenId",
          "type": "uint256"
        }
      ],
      "name": "transferFrom",
      "outputs": [],
      "stateMutability": "nonpayable",
      "type": "function"
    },
    {
      "inputs": [
        {
          "internalType": "string",
          "name": "_postHash",
          "type": "string"
        }
      ],
      "name": "uploadPost",
      "outputs": [],
      "stateMutability": "nonpayable",
      "type": "function"
    }
  ],
  "bytecode": "0x60806040523480156200001157600080fd5b506040518060400160405280600681526020017f4465626f6f6b00000000000000000000000000000000000000000000000000008152506040518060400160405280600481526020017f4441505000000000000000000000000000000000000000000000000000000000815250816000908051906020019062000096929190620000b8565b508060019080519060200190620000af929190620000b8565b505050620001cd565b828054620000c69062000168565b90600052602060002090601f016020900481019282620000ea576000855562000136565b82601f106200010557805160ff191683800117855562000136565b8280016001018555821562000136579182015b828111156200013557825182559160200191906001019062000118565b5b50905062000145919062000149565b5090565b5b80821115620001645760008160009055506001016200014a565b5090565b600060028204905060018216806200018157607f821691505b602082108114156200019857620001976200019e565b5b50919050565b7f4e487b7100000000000000000000000000000000000000000000000000000000600052602260045260246000fd5b613e3980620001dd6000396000f3fe6080604052600436106101405760003560e01c806370a08231116100b6578063bbe156271161006f578063bbe1562714610471578063bdd05adb146104ae578063c87b56dd146104d7578063d6313c0614610514578063d85d3d2714610530578063e985e9c51461056d57610140565b806370a082311461036357806385d3cb37146103a057806395d89b41146103c95780639f181b5e146103f4578063a22cb4651461041f578063b88d4fde1461044857610140565b80630b1e7f83116101085780630b1e7f831461023e57806317906c2e1461027e57806323b872dd146102a957806330561100146102d257806342842e0e146102fd5780636352211e1461032657610140565b806301ffc9a714610145578063047b07bf1461018257806306fdde03146101ad578063081812fc146101d8578063095ea7b314610215575b600080fd5b34801561015157600080fd5b5061016c60048036038101906101679190612909565b6105aa565b604051610179919061301a565b60405180910390f35b34801561018e57600080fd5b5061019761068c565b6040516101a49190612ff8565b60405180910390f35b3480156101b957600080fd5b506101c26107c1565b6040516101cf9190613035565b60405180910390f35b3480156101e457600080fd5b506101ff60048036038101906101fa919061299c565b610853565b60405161020c9190612f6f565b60405180910390f35b34801561022157600080fd5b5061023c600480360381019061023791906128cd565b6108d8565b005b34801561024a57600080fd5b506102656004803603810190610260919061299c565b6109f0565b604051610275949392919061335e565b60405180910390f35b34801561028a57600080fd5b50610293610ac8565b6040516102a091906132f7565b60405180910390f35b3480156102b557600080fd5b506102d060048036038101906102cb91906127c7565b610ace565b005b3480156102de57600080fd5b506102e7610b2e565b6040516102f49190612fd6565b60405180910390f35b34801561030957600080fd5b50610324600480360381019061031f91906127c7565b610d3b565b005b34801561033257600080fd5b5061034d6004803603810190610348919061299c565b610d5b565b60405161035a9190612f6f565b60405180910390f35b34801561036f57600080fd5b5061038a60048036038101906103859190612762565b610e0d565b60405161039791906132f7565b60405180910390f35b3480156103ac57600080fd5b506103c760048036038101906103c2919061299c565b610ec5565b005b3480156103d557600080fd5b506103de610f82565b6040516103eb9190613035565b60405180910390f35b34801561040057600080fd5b50610409611014565b60405161041691906132f7565b60405180910390f35b34801561042b57600080fd5b5061044660048036038101906104419190612891565b61101a565b005b34801561045457600080fd5b5061046f600480360381019061046a9190612816565b611030565b005b34801561047d57600080fd5b5061049860048036038101906104939190612762565b611092565b6040516104a591906132f7565b60405180910390f35b3480156104ba57600080fd5b506104d560048036038101906104d0919061295b565b6110aa565b005b3480156104e357600080fd5b506104fe60048036038101906104f9919061299c565b61125e565b60405161050b9190613035565b60405180910390f35b61052e6004803603810190610529919061299c565b6113b0565b005b34801561053c57600080fd5b506105576004803603810190610552919061295b565b6116d2565b60405161056491906132f7565b60405180910390f35b34801561057957600080fd5b50610594600480360381019061058f919061278b565b611719565b6040516105a1919061301a565b60405180910390f35b60007f80ac58cd000000000000000000000000000000000000000000000000000000007bffffffffffffffffffffffffffffffffffffffffffffffffffffffff1916827bffffffffffffffffffffffffffffffffffffffffffffffffffffffff1916148061067557507f5b5e139f000000000000000000000000000000000000000000000000000000007bffffffffffffffffffffffffffffffffffffffffffffffffffffffff1916827bffffffffffffffffffffffffffffffffffffffffffffffffffffffff1916145b806106855750610684826117ad565b5b9050919050565b606061069733610e0d565b67ffffffffffffffff8111156106d6577f4e487b7100000000000000000000000000000000000000000000000000000000600052604160045260246000fd5b6040519080825280602002602001820160405280156107045781602001602082028036833780820191505090505b509050600080600190505b60075481116107bc573373ffffffffffffffffffffffffffffffffffffffff1661073882610d5b565b73ffffffffffffffffffffffffffffffffffffffff1614156107a9578083838151811061078e577f4e487b7100000000000000000000000000000000000000000000000000000000600052603260045260246000fd5b60200260200101818152505081806107a5906136ef565b9250505b80806107b4906136ef565b91505061070f565b505090565b6060600080546107d09061368c565b80601f01602080910402602001604051908101604052809291908181526020018280546107fc9061368c565b80156108495780601f1061081e57610100808354040283529160200191610849565b820191906000526020600020905b81548152906001019060200180831161082c57829003601f168201915b5050505050905090565b600061085e82611817565b61089d576040517f08c379a0000000000000000000000000000000000000000000000000000000008152600401610894906131f7565b60405180910390fd5b6004600083815260200190815260200160002060009054906101000a900473ffffffffffffffffffffffffffffffffffffffff169050919050565b60006108e382610d5b565b90508073ffffffffffffffffffffffffffffffffffffffff168373ffffffffffffffffffffffffffffffffffffffff161415610954576040517f08c379a000000000000000000000000000000000000000000000000000000000815260040161094b90613277565b60405180910390fd5b8073ffffffffffffffffffffffffffffffffffffffff16610973611883565b73ffffffffffffffffffffffffffffffffffffffff1614806109a257506109a18161099c611883565b611719565b5b6109e1576040517f08c379a00000000000000000000000000000000000000000000000000000000081526004016109d890613117565b60405180910390fd5b6109eb838361188b565b505050565b6009602052806000526040600020600091509050806000015490806001018054610a199061368c565b80601f0160208091040260200160405190810160405280929190818152602001828054610a459061368c565b8015610a925780601f10610a6757610100808354040283529160200191610a92565b820191906000526020600020905b815481529060010190602001808311610a7557829003601f168201915b5050505050908060020154908060030160009054906101000a900473ffffffffffffffffffffffffffffffffffffffff16905084565b60085481565b610adf610ad9611883565b82611944565b610b1e576040517f08c379a0000000000000000000000000000000000000000000000000000000008152600401610b15906132d7565b60405180910390fd5b610b29838383611a22565b505050565b606060085467ffffffffffffffff811115610b72577f4e487b7100000000000000000000000000000000000000000000000000000000600052604160045260246000fd5b604051908082528060200260200182016040528015610bab57816020015b610b98612548565b815260200190600190039081610b905790505b50905060005b8151811015610d375760096000600183610bcb91906134f7565b815260200190815260200160002060405180608001604052908160008201548152602001600182018054610bfe9061368c565b80601f0160208091040260200160405190810160405280929190818152602001828054610c2a9061368c565b8015610c775780601f10610c4c57610100808354040283529160200191610c77565b820191906000526020600020905b815481529060010190602001808311610c5a57829003601f168201915b50505050508152602001600282015481526020016003820160009054906101000a900473ffffffffffffffffffffffffffffffffffffffff1673ffffffffffffffffffffffffffffffffffffffff1673ffffffffffffffffffffffffffffffffffffffff1681525050828281518110610d19577f4e487b7100000000000000000000000000000000000000000000000000000000600052603260045260246000fd5b60200260200101819052508080610d2f906136ef565b915050610bb1565b5090565b610d5683838360405180602001604052806000815250611030565b505050565b6000806002600084815260200190815260200160002060009054906101000a900473ffffffffffffffffffffffffffffffffffffffff169050600073ffffffffffffffffffffffffffffffffffffffff168173ffffffffffffffffffffffffffffffffffffffff161415610e04576040517f08c379a0000000000000000000000000000000000000000000000000000000008152600401610dfb90613157565b60405180910390fd5b80915050919050565b60008073ffffffffffffffffffffffffffffffffffffffff168273ffffffffffffffffffffffffffffffffffffffff161415610e7e576040517f08c379a0000000000000000000000000000000000000000000000000000000008152600401610e7590613137565b60405180910390fd5b600360008373ffffffffffffffffffffffffffffffffffffffff1673ffffffffffffffffffffffffffffffffffffffff168152602001908152602001600020549050919050565b3373ffffffffffffffffffffffffffffffffffffffff16610ee582610d5b565b73ffffffffffffffffffffffffffffffffffffffff1614610f3b576040517f08c379a0000000000000000000000000000000000000000000000000000000008152600401610f3290613297565b60405180910390fd5b80600a60003373ffffffffffffffffffffffffffffffffffffffff1673ffffffffffffffffffffffffffffffffffffffff1681526020019081526020016000208190555050565b606060018054610f919061368c565b80601f0160208091040260200160405190810160405280929190818152602001828054610fbd9061368c565b801561100a5780601f10610fdf5761010080835404028352916020019161100a565b820191906000526020600020905b815481529060010190602001808311610fed57829003601f168201915b5050505050905090565b60075481565b61102c611025611883565b8383611c89565b5050565b61104161103b611883565b83611944565b611080576040517f08c379a0000000000000000000000000000000000000000000000000000000008152600401611077906132d7565b60405180910390fd5b61108c84848484611df6565b50505050565b600a6020528060005260406000206000915090505481565b60006110b533610e0d565b116110f5576040517f08c379a00000000000000000000000000000000000000000000000000000000081526004016110ec90613217565b60405180910390fd5b6000815111611139576040517f08c379a000000000000000000000000000000000000000000000000000000000815260040161113090613237565b60405180910390fd5b6008600081548092919061114c906136ef565b919050555060405180608001604052806008548152602001828152602001600081526020013373ffffffffffffffffffffffffffffffffffffffff168152506009600060085481526020019081526020016000206000820151816000015560208201518160010190805190602001906111c6929190612586565b506040820151816002015560608201518160030160006101000a81548173ffffffffffffffffffffffffffffffffffffffff021916908373ffffffffffffffffffffffffffffffffffffffff1602179055509050507fc66336337a24e513f909b3b25119854dba8385d51307dbc7d31d1b2805e19c7e600854826000336040516112539493929190613312565b60405180910390a150565b606061126982611817565b6112a8576040517f08c379a000000000000000000000000000000000000000000000000000000000815260040161129f906131d7565b60405180910390fd5b60006006600084815260200190815260200160002080546112c89061368c565b80601f01602080910402602001604051908101604052809291908181526020018280546112f49061368c565b80156113415780601f1061131657610100808354040283529160200191611341565b820191906000526020600020905b81548152906001019060200180831161132457829003601f168201915b505050505090506000611352611e52565b90506000815114156113685781925050506113ab565b60008251111561139d578082604051602001611385929190612f4b565b604051602081830303815290604052925050506113ab565b6113a684611e69565b925050505b919050565b6000811180156113c257506008548111155b611401576040517f08c379a00000000000000000000000000000000000000000000000000000000081526004016113f890613197565b60405180910390fd5b6000600960008381526020019081526020016000206040518060800160405290816000820154815260200160018201805461143b9061368c565b80601f01602080910402602001604051908101604052809291908181526020018280546114679061368c565b80156114b45780601f10611489576101008083540402835291602001916114b4565b820191906000526020600020905b81548152906001019060200180831161149757829003601f168201915b50505050508152602001600282015481526020016003820160009054906101000a900473ffffffffffffffffffffffffffffffffffffffff1673ffffffffffffffffffffffffffffffffffffffff1673ffffffffffffffffffffffffffffffffffffffff168152505090503373ffffffffffffffffffffffffffffffffffffffff16816060015173ffffffffffffffffffffffffffffffffffffffff161415611592576040517f08c379a0000000000000000000000000000000000000000000000000000000008152600401611589906132b7565b60405180910390fd5b806060015173ffffffffffffffffffffffffffffffffffffffff166108fc349081150290604051600060405180830381858888f193505050501580156115dc573d6000803e3d6000fd5b5034816040018181516115ef91906134f7565b915081815250508060096000848152602001908152602001600020600082015181600001556020820151816001019080519060200190611630929190612586565b506040820151816002015560608201518160030160006101000a81548173ffffffffffffffffffffffffffffffffffffffff021916908373ffffffffffffffffffffffffffffffffffffffff1602179055509050507f20988fe475351e75813672abada1dddb7ac67cbbeb81e61e1160b8329d8cdf1c828260200151836040015184606001516040516116c6949392919061335e565b60405180910390a15050565b6000600760008154809291906116e7906136ef565b91905055506116f833600754611f10565b61170460075483611f2e565b61170f600754610ec5565b6007549050919050565b6000600560008473ffffffffffffffffffffffffffffffffffffffff1673ffffffffffffffffffffffffffffffffffffffff16815260200190815260200160002060008373ffffffffffffffffffffffffffffffffffffffff1673ffffffffffffffffffffffffffffffffffffffff16815260200190815260200160002060009054906101000a900460ff16905092915050565b60007f01ffc9a7000000000000000000000000000000000000000000000000000000007bffffffffffffffffffffffffffffffffffffffffffffffffffffffff1916827bffffffffffffffffffffffffffffffffffffffffffffffffffffffff1916149050919050565b60008073ffffffffffffffffffffffffffffffffffffffff166002600084815260200190815260200160002060009054906101000a900473ffffffffffffffffffffffffffffffffffffffff1673ffffffffffffffffffffffffffffffffffffffff1614159050919050565b600033905090565b816004600083815260200190815260200160002060006101000a81548173ffffffffffffffffffffffffffffffffffffffff021916908373ffffffffffffffffffffffffffffffffffffffff160217905550808273ffffffffffffffffffffffffffffffffffffffff166118fe83610d5b565b73ffffffffffffffffffffffffffffffffffffffff167f8c5be1e5ebec7d5bd14f71427d1e84f3dd0314c0f7b2291e5b200ac8c7c3b92560405160405180910390a45050565b600061194f82611817565b61198e576040517f08c379a0000000000000000000000000000000000000000000000000000000008152600401611985906130f7565b60405180910390fd5b600061199983610d5b565b90508073ffffffffffffffffffffffffffffffffffffffff168473ffffffffffffffffffffffffffffffffffffffff161480611a0857508373ffffffffffffffffffffffffffffffffffffffff166119f084610853565b73ffffffffffffffffffffffffffffffffffffffff16145b80611a195750611a188185611719565b5b91505092915050565b8273ffffffffffffffffffffffffffffffffffffffff16611a4282610d5b565b73ffffffffffffffffffffffffffffffffffffffff1614611a98576040517f08c379a0000000000000000000000000000000000000000000000000000000008152600401611a8f90613077565b60405180910390fd5b600073ffffffffffffffffffffffffffffffffffffffff168273ffffffffffffffffffffffffffffffffffffffff161415611b08576040517f08c379a0000000000000000000000000000000000000000000000000000000008152600401611aff906130b7565b60405180910390fd5b611b13838383611fa2565b611b1e60008261188b565b6001600360008573ffffffffffffffffffffffffffffffffffffffff1673ffffffffffffffffffffffffffffffffffffffff1681526020019081526020016000206000828254611b6e919061357e565b925050819055506001600360008473ffffffffffffffffffffffffffffffffffffffff1673ffffffffffffffffffffffffffffffffffffffff1681526020019081526020016000206000828254611bc591906134f7565b92505081905550816002600083815260200190815260200160002060006101000a81548173ffffffffffffffffffffffffffffffffffffffff021916908373ffffffffffffffffffffffffffffffffffffffff160217905550808273ffffffffffffffffffffffffffffffffffffffff168473ffffffffffffffffffffffffffffffffffffffff167fddf252ad1be2c89b69c2b068fc378daa952ba7f163c4a11628f55a4df523b3ef60405160405180910390a4611c84838383611fa7565b505050565b8173ffffffffffffffffffffffffffffffffffffffff168373ffffffffffffffffffffffffffffffffffffffff161415611cf8576040517f08c379a0000000000000000000000000000000000000000000000000000000008152600401611cef906130d7565b60405180910390fd5b80600560008573ffffffffffffffffffffffffffffffffffffffff1673ffffffffffffffffffffffffffffffffffffffff16815260200190815260200160002060008473ffffffffffffffffffffffffffffffffffffffff1673ffffffffffffffffffffffffffffffffffffffff16815260200190815260200160002060006101000a81548160ff0219169083151502179055508173ffffffffffffffffffffffffffffffffffffffff168373ffffffffffffffffffffffffffffffffffffffff167f17307eab39ab6107e8899845ad3d59bd9653f200f220920489ca2b5937696c3183604051611de9919061301a565b60405180910390a3505050565b611e01848484611a22565b611e0d84848484611fac565b611e4c576040517f08c379a0000000000000000000000000000000000000000000000000000000008152600401611e4390613057565b60405180910390fd5b50505050565b606060405180602001604052806000815250905090565b6060611e7482611817565b611eb3576040517f08c379a0000000000000000000000000000000000000000000000000000000008152600401611eaa90613257565b60405180910390fd5b6000611ebd611e52565b90506000815111611edd5760405180602001604052806000815250611f08565b80611ee784612143565b604051602001611ef8929190612f4b565b6040516020818303038152906040525b915050919050565b611f2a8282604051806020016040528060008152506122f0565b5050565b611f3782611817565b611f76576040517f08c379a0000000000000000000000000000000000000000000000000000000008152600401611f6d90613177565b60405180910390fd5b80600660008481526020019081526020016000209080519060200190611f9d929190612586565b505050565b505050565b505050565b6000611fcd8473ffffffffffffffffffffffffffffffffffffffff1661234b565b15612136578373ffffffffffffffffffffffffffffffffffffffff1663150b7a02611ff6611883565b8786866040518563ffffffff1660e01b81526004016120189493929190612f8a565b602060405180830381600087803b15801561203257600080fd5b505af192505050801561206357506040513d601f19601f820116820180604052508101906120609190612932565b60015b6120e6573d8060008114612093576040519150601f19603f3d011682016040523d82523d6000602084013e612098565b606091505b506000815114156120de576040517f08c379a00000000000000000000000000000000000000000000000000000000081526004016120d590613057565b60405180910390fd5b805181602001fd5b63150b7a0260e01b7bffffffffffffffffffffffffffffffffffffffffffffffffffffffff1916817bffffffffffffffffffffffffffffffffffffffffffffffffffffffff19161491505061213b565b600190505b949350505050565b6060600082141561218b576040518060400160405280600181526020017f300000000000000000000000000000000000000000000000000000000000000081525090506122eb565b600082905060005b600082146121bd5780806121a6906136ef565b915050600a826121b6919061354d565b9150612193565b60008167ffffffffffffffff8111156121ff577f4e487b7100000000000000000000000000000000000000000000000000000000600052604160045260246000fd5b6040519080825280601f01601f1916602001820160405280156122315781602001600182028036833780820191505090505b5090505b600085146122e45760018261224a919061357e565b9150600a856122599190613738565b603061226591906134f7565b60f81b8183815181106122a1577f4e487b7100000000000000000000000000000000000000000000000000000000600052603260045260246000fd5b60200101907effffffffffffffffffffffffffffffffffffffffffffffffffffffffffffff1916908160001a905350600a856122dd919061354d565b9450612235565b8093505050505b919050565b6122fa838361236e565b6123076000848484611fac565b612346576040517f08c379a000000000000000000000000000000000000000000000000000000000815260040161233d90613057565b60405180910390fd5b505050565b6000808273ffffffffffffffffffffffffffffffffffffffff163b119050919050565b600073ffffffffffffffffffffffffffffffffffffffff168273ffffffffffffffffffffffffffffffffffffffff1614156123de576040517f08c379a00000000000000000000000000000000000000000000000000000000081526004016123d5906131b7565b60405180910390fd5b6123e781611817565b15612427576040517f08c379a000000000000000000000000000000000000000000000000000000000815260040161241e90613097565b60405180910390fd5b61243360008383611fa2565b6001600360008473ffffffffffffffffffffffffffffffffffffffff1673ffffffffffffffffffffffffffffffffffffffff168152602001908152602001600020600082825461248391906134f7565b92505081905550816002600083815260200190815260200160002060006101000a81548173ffffffffffffffffffffffffffffffffffffffff021916908373ffffffffffffffffffffffffffffffffffffffff160217905550808273ffffffffffffffffffffffffffffffffffffffff16600073ffffffffffffffffffffffffffffffffffffffff167fddf252ad1be2c89b69c2b068fc378daa952ba7f163c4a11628f55a4df523b3ef60405160405180910390a461254460008383611fa7565b5050565b6040518060800160405280600081526020016060815260200160008152602001600073ffffffffffffffffffffffffffffffffffffffff1681525090565b8280546125929061368c565b90600052602060002090601f0160209004810192826125b457600085556125fb565b82601f106125cd57805160ff19168380011785556125fb565b828001600101855582156125fb579182015b828111156125fa5782518255916020019190600101906125df565b5b509050612608919061260c565b5090565b5b8082111561262557600081600090555060010161260d565b5090565b600061263c612637846133cf565b6133aa565b90508281526020810184848401111561265457600080fd5b61265f84828561364a565b509392505050565b600061267a61267584613400565b6133aa565b90508281526020810184848401111561269257600080fd5b61269d84828561364a565b509392505050565b6000813590506126b481613da7565b92915050565b6000813590506126c981613dbe565b92915050565b6000813590506126de81613dd5565b92915050565b6000815190506126f381613dd5565b92915050565b600082601f83011261270a57600080fd5b813561271a848260208601612629565b91505092915050565b600082601f83011261273457600080fd5b8135612744848260208601612667565b91505092915050565b60008135905061275c81613dec565b92915050565b60006020828403121561277457600080fd5b6000612782848285016126a5565b91505092915050565b6000806040838503121561279e57600080fd5b60006127ac858286016126a5565b92505060206127bd858286016126a5565b9150509250929050565b6000806000606084860312156127dc57600080fd5b60006127ea868287016126a5565b93505060206127fb868287016126a5565b925050604061280c8682870161274d565b9150509250925092565b6000806000806080858703121561282c57600080fd5b600061283a878288016126a5565b945050602061284b878288016126a5565b935050604061285c8782880161274d565b925050606085013567ffffffffffffffff81111561287957600080fd5b612885878288016126f9565b91505092959194509250565b600080604083850312156128a457600080fd5b60006128b2858286016126a5565b92505060206128c3858286016126ba565b9150509250929050565b600080604083850312156128e057600080fd5b60006128ee858286016126a5565b92505060206128ff8582860161274d565b9150509250929050565b60006020828403121561291b57600080fd5b6000612929848285016126cf565b91505092915050565b60006020828403121561294457600080fd5b6000612952848285016126e4565b91505092915050565b60006020828403121561296d57600080fd5b600082013567ffffffffffffffff81111561298757600080fd5b61299384828501612723565b91505092915050565b6000602082840312156129ae57600080fd5b60006129bc8482850161274d565b91505092915050565b60006129d18383612eca565b905092915050565b60006129e58383612f2d565b60208301905092915050565b6129fa816135c4565b82525050565b612a09816135c4565b82525050565b612a18816135b2565b82525050565b6000612a2982613451565b612a338185613497565b935083602082028501612a4585613431565b8060005b85811015612a815784840389528151612a6285826129c5565b9450612a6d8361347d565b925060208a01995050600181019050612a49565b50829750879550505050505092915050565b6000612a9e8261345c565b612aa881856134a8565b9350612ab383613441565b8060005b83811015612ae4578151612acb88826129d9565b9750612ad68361348a565b925050600181019050612ab7565b5085935050505092915050565b612afa816135d6565b82525050565b6000612b0b82613467565b612b1581856134b9565b9350612b25818560208601613659565b612b2e81613825565b840191505092915050565b612b4281613638565b82525050565b6000612b5382613472565b612b5d81856134ca565b9350612b6d818560208601613659565b612b7681613825565b840191505092915050565b6000612b8c82613472565b612b9681856134db565b9350612ba6818560208601613659565b612baf81613825565b840191505092915050565b6000612bc582613472565b612bcf81856134ec565b9350612bdf818560208601613659565b80840191505092915050565b6000612bf86032836134db565b9150612c0382613836565b604082019050919050565b6000612c1b6025836134db565b9150612c2682613885565b604082019050919050565b6000612c3e601c836134db565b9150612c49826138d4565b602082019050919050565b6000612c616024836134db565b9150612c6c826138fd565b604082019050919050565b6000612c846019836134db565b9150612c8f8261394c565b602082019050919050565b6000612ca7602c836134db565b9150612cb282613975565b604082019050919050565b6000612cca6038836134db565b9150612cd5826139c4565b604082019050919050565b6000612ced602a836134db565b9150612cf882613a13565b604082019050919050565b6000612d106029836134db565b9150612d1b82613a62565b604082019050919050565b6000612d33602e836134db565b9150612d3e82613ab1565b604082019050919050565b6000612d56600f836134db565b9150612d6182613b00565b602082019050919050565b6000612d796020836134db565b9150612d8482613b29565b602082019050919050565b6000612d9c6031836134db565b9150612da782613b52565b604082019050919050565b6000612dbf602c836134db565b9150612dca82613ba1565b604082019050919050565b6000612de2601d836134db565b9150612ded82613bf0565b602082019050919050565b6000612e056019836134db565b9150612e1082613c19565b602082019050919050565b6000612e28602f836134db565b9150612e3382613c42565b604082019050919050565b6000612e4b6021836134db565b9150612e5682613c91565b604082019050919050565b6000612e6e6033836134db565b9150612e7982613ce0565b604082019050919050565b6000612e916018836134db565b9150612e9c82613d2f565b602082019050919050565b6000612eb46031836134db565b9150612ebf82613d58565b604082019050919050565b6000608083016000830151612ee26000860182612f2d565b5060208301518482036020860152612efa8282612b48565b9150506040830151612f0f6040860182612f2d565b506060830151612f2260608601826129f1565b508091505092915050565b612f368161362e565b82525050565b612f458161362e565b82525050565b6000612f578285612bba565b9150612f638284612bba565b91508190509392505050565b6000602082019050612f846000830184612a0f565b92915050565b6000608082019050612f9f6000830187612a0f565b612fac6020830186612a0f565b612fb96040830185612f3c565b8181036060830152612fcb8184612b00565b905095945050505050565b60006020820190508181036000830152612ff08184612a1e565b905092915050565b600060208201905081810360008301526130128184612a93565b905092915050565b600060208201905061302f6000830184612af1565b92915050565b6000602082019050818103600083015261304f8184612b81565b905092915050565b6000602082019050818103600083015261307081612beb565b9050919050565b6000602082019050818103600083015261309081612c0e565b9050919050565b600060208201905081810360008301526130b081612c31565b9050919050565b600060208201905081810360008301526130d081612c54565b9050919050565b600060208201905081810360008301526130f081612c77565b9050919050565b6000602082019050818103600083015261311081612c9a565b9050919050565b6000602082019050818103600083015261313081612cbd565b9050919050565b6000602082019050818103600083015261315081612ce0565b9050919050565b6000602082019050818103600083015261317081612d03565b9050919050565b6000602082019050818103600083015261319081612d26565b9050919050565b600060208201905081810360008301526131b081612d49565b9050919050565b600060208201905081810360008301526131d081612d6c565b9050919050565b600060208201905081810360008301526131f081612d8f565b9050919050565b6000602082019050818103600083015261321081612db2565b9050919050565b6000602082019050818103600083015261323081612dd5565b9050919050565b6000602082019050818103600083015261325081612df8565b9050919050565b6000602082019050818103600083015261327081612e1b565b9050919050565b6000602082019050818103600083015261329081612e3e565b9050919050565b600060208201905081810360008301526132b081612e61565b9050919050565b600060208201905081810360008301526132d081612e84565b9050919050565b600060208201905081810360008301526132f081612ea7565b9050919050565b600060208201905061330c6000830184612f3c565b92915050565b60006080820190506133276000830187612f3c565b81810360208301526133398186612b81565b90506133486040830185612b39565b6133556060830184612a00565b95945050505050565b60006080820190506133736000830187612f3c565b81810360208301526133858186612b81565b90506133946040830185612f3c565b6133a16060830184612a00565b95945050505050565b60006133b46133c5565b90506133c082826136be565b919050565b6000604051905090565b600067ffffffffffffffff8211156133ea576133e96137f6565b5b6133f382613825565b9050602081019050919050565b600067ffffffffffffffff82111561341b5761341a6137f6565b5b61342482613825565b9050602081019050919050565b6000819050602082019050919050565b6000819050602082019050919050565b600081519050919050565b600081519050919050565b600081519050919050565b600081519050919050565b6000602082019050919050565b6000602082019050919050565b600082825260208201905092915050565b600082825260208201905092915050565b600082825260208201905092915050565b600082825260208201905092915050565b600082825260208201905092915050565b600081905092915050565b60006135028261362e565b915061350d8361362e565b9250827fffffffffffffffffffffffffffffffffffffffffffffffffffffffffffffffff0382111561354257613541613769565b5b828201905092915050565b60006135588261362e565b91506135638361362e565b92508261357357613572613798565b5b828204905092915050565b60006135898261362e565b91506135948361362e565b9250828210156135a7576135a6613769565b5b828203905092915050565b60006135bd8261360e565b9050919050565b60006135cf8261360e565b9050919050565b60008115159050919050565b60007fffffffff0000000000000000000000000000000000000000000000000000000082169050919050565b600073ffffffffffffffffffffffffffffffffffffffff82169050919050565b6000819050919050565b60006136438261362e565b9050919050565b82818337600083830152505050565b60005b8381101561367757808201518184015260208101905061365c565b83811115613686576000848401525b50505050565b600060028204905060018216806136a457607f821691505b602082108114156136b8576136b76137c7565b5b50919050565b6136c782613825565b810181811067ffffffffffffffff821117156136e6576136e56137f6565b5b80604052505050565b60006136fa8261362e565b91507fffffffffffffffffffffffffffffffffffffffffffffffffffffffffffffffff82141561372d5761372c613769565b5b600182019050919050565b60006137438261362e565b915061374e8361362e565b92508261375e5761375d613798565b5b828206905092915050565b7f4e487b7100000000000000000000000000000000000000000000000000000000600052601160045260246000fd5b7f4e487b7100000000000000000000000000000000000000000000000000000000600052601260045260246000fd5b7f4e487b7100000000000000000000000000000000000000000000000000000000600052602260045260246000fd5b7f4e487b7100000000000000000000000000000000000000000000000000000000600052604160045260246000fd5b6000601f19601f8301169050919050565b7f4552433732313a207472616e7366657220746f206e6f6e20455243373231526560008201527f63656976657220696d706c656d656e7465720000000000000000000000000000602082015250565b7f4552433732313a207472616e736665722066726f6d20696e636f72726563742060008201527f6f776e6572000000000000000000000000000000000000000000000000000000602082015250565b7f4552433732313a20746f6b656e20616c7265616479206d696e74656400000000600082015250565b7f4552433732313a207472616e7366657220746f20746865207a65726f2061646460008201527f7265737300000000000000000000000000000000000000000000000000000000602082015250565b7f4552433732313a20617070726f766520746f2063616c6c657200000000000000600082015250565b7f4552433732313a206f70657261746f7220717565727920666f72206e6f6e657860008201527f697374656e7420746f6b656e0000000000000000000000000000000000000000602082015250565b7f4552433732313a20617070726f76652063616c6c6572206973206e6f74206f7760008201527f6e6572206e6f7220617070726f76656420666f7220616c6c0000000000000000602082015250565b7f4552433732313a2062616c616e636520717565727920666f7220746865207a6560008201527f726f206164647265737300000000000000000000000000000000000000000000602082015250565b7f4552433732313a206f776e657220717565727920666f72206e6f6e657869737460008201527f656e7420746f6b656e0000000000000000000000000000000000000000000000602082015250565b7f45524337323155524953746f726167653a2055524920736574206f66206e6f6e60008201527f6578697374656e7420746f6b656e000000000000000000000000000000000000602082015250565b7f496e76616c696420706f73742069640000000000000000000000000000000000600082015250565b7f4552433732313a206d696e7420746f20746865207a65726f2061646472657373600082015250565b7f45524337323155524953746f726167653a2055524920717565727920666f722060008201527f6e6f6e6578697374656e7420746f6b656e000000000000000000000000000000602082015250565b7f4552433732313a20617070726f76656420717565727920666f72206e6f6e657860008201527f697374656e7420746f6b656e0000000000000000000000000000000000000000602082015250565b7f4d757374206f776e2061204465626f6f6b206e667420746f20706f7374000000600082015250565b7f43616e6e6f74207061737320616e20656d707479206861736800000000000000600082015250565b7f4552433732314d657461646174613a2055524920717565727920666f72206e6f60008201527f6e6578697374656e7420746f6b656e0000000000000000000000000000000000602082015250565b7f4552433732313a20617070726f76616c20746f2063757272656e74206f776e6560008201527f7200000000000000000000000000000000000000000000000000000000000000602082015250565b7f4d757374206f776e20746865206e667420796f752077616e7420746f2073656c60008201527f65637420617320796f75722070726f66696c6500000000000000000000000000602082015250565b7f43616e6e6f742074697020796f7572206f776e20706f73740000000000000000600082015250565b7f4552433732313a207472616e736665722063616c6c6572206973206e6f74206f60008201527f776e6572206e6f7220617070726f766564000000000000000000000000000000602082015250565b613db0816135b2565b8114613dbb57600080fd5b50565b613dc7816135d6565b8114613dd257600080fd5b50565b613dde816135e2565b8114613de957600080fd5b50565b613df58161362e565b8114613e0057600080fd5b5056fea2646970667358221220ac1a4151eb05e4bbbaf533e65872ef81cd9bf7000047bebdbf0177453a3c95f964736f6c63430008040033",
  "linkReferences": {},
  "deployedLinkReferences": {}
}